{
  "_format": "hh-sol-artifact-1",
  "contractName": "ZenVolt",
  "sourceName": "contracts/ZenVolt.sol",
  "abi": [
    {
      "inputs": [
        {
          "internalType": "address",
          "name": "_vBetterTokenAddress",
          "type": "address"
        }
      ],
      "stateMutability": "nonpayable",
      "type": "constructor"
    },
    {
      "anonymous": false,
      "inputs": [
        {
          "indexed": false,
          "internalType": "address",
          "name": "driverAddress",
          "type": "address"
        },
        {
          "indexed": false,
          "internalType": "string",
          "name": "name",
          "type": "string"
        },
        {
          "indexed": false,
          "internalType": "string",
          "name": "licenseNo",
          "type": "string"
        }
      ],
      "name": "DriverRegistered",
      "type": "event"
    },
    {
      "anonymous": false,
      "inputs": [
        {
          "indexed": false,
          "internalType": "address",
          "name": "driverAddress",
          "type": "address"
        },
        {
          "indexed": false,
          "internalType": "uint256",
          "name": "rewardAmount",
          "type": "uint256"
        }
      ],
      "name": "RewardSent",
      "type": "event"
    },
    {
      "inputs": [
        {
          "internalType": "address",
          "name": "",
          "type": "address"
        }
      ],
      "name": "drivers",
      "outputs": [
        {
          "internalType": "string",
          "name": "name",
          "type": "string"
        },
        {
          "internalType": "string",
          "name": "licenseNo",
          "type": "string"
        },
        {
          "internalType": "uint256",
          "name": "rewardBalance",
          "type": "uint256"
        }
      ],
      "stateMutability": "view",
      "type": "function"
    },
    {
      "inputs": [
        {
          "internalType": "string",
          "name": "_name",
          "type": "string"
        },
        {
          "internalType": "string",
          "name": "_licenseNo",
          "type": "string"
        }
      ],
      "name": "registerDriver",
      "outputs": [],
      "stateMutability": "nonpayable",
      "type": "function"
    },
    {
      "inputs": [
        {
          "internalType": "uint256",
          "name": "_rewardAmount",
          "type": "uint256"
        }
      ],
      "name": "sendReward",
      "outputs": [],
      "stateMutability": "nonpayable",
      "type": "function"
    },
    {
      "inputs": [],
      "name": "vBetterToken",
      "outputs": [
        {
          "internalType": "contract VBetter",
          "name": "",
          "type": "address"
        }
      ],
      "stateMutability": "view",
      "type": "function"
    },
    {
      "stateMutability": "payable",
      "type": "receive"
    }
  ],
  "bytecode": "0x608060405234801561001057600080fd5b5060405161096438038061096483398101604081905261002f91610054565b600080546001600160a01b0319166001600160a01b0392909216919091179055610084565b60006020828403121561006657600080fd5b81516001600160a01b038116811461007d57600080fd5b9392505050565b6108d1806100936000396000f3fe6080604052600436106100435760003560e01c80633390854f1461004f5780634aa60186146100715780634c2f3bba146100a9578063c78b6dea146100e157600080fd5b3661004a57005b600080fd5b34801561005b57600080fd5b5061006f61006a3660046105ae565b610101565b005b34801561007d57600080fd5b5061009161008c366004610612565b61020a565b6040516100a093929190610688565b60405180910390f35b3480156100b557600080fd5b506000546100c9906001600160a01b031681565b6040516001600160a01b0390911681526020016100a0565b3480156100ed57600080fd5b5061006f6100fc3660046106be565b61033c565b33600090815260016020819052604090912001805461011f906106d7565b1590506101735760405162461bcd60e51b815260206004820152601d60248201527f44726976657220697320616c726561647920726567697374657265642e00000060448201526064015b60405180910390fd5b6040805160608101825283815260208082018490526000828401819052338152600190915291909120815181906101aa9082610760565b50602082015160018201906101bf9082610760565b50604091820151600290910155517fa8528f604dcef85f7a2e7805dbc68012f2ea40e8b239145224666ee957e2f5d5906101fe90339085908590610820565b60405180910390a15050565b600160205260009081526040902080548190610225906106d7565b80601f0160208091040260200160405190810160405280929190818152602001828054610251906106d7565b801561029e5780601f106102735761010080835404028352916020019161029e565b820191906000526020600020905b81548152906001019060200180831161028157829003601f168201915b5050505050908060010180546102b3906106d7565b80601f01602080910402602001604051908101604052809291908181526020018280546102df906106d7565b801561032c5780601f106103015761010080835404028352916020019161032c565b820191906000526020600020905b81548152906001019060200180831161030f57829003601f168201915b5050505050908060020154905083565b3360009081526001602081905260408220018054610359906106d7565b9050116103a85760405162461bcd60e51b815260206004820152601960248201527f447269766572206973206e6f7420726567697374657265642e00000000000000604482015260640161016a565b6000546040516370a0823160e01b815230600482015282916001600160a01b0316906370a0823190602401602060405180830381865afa1580156103f0573d6000803e3d6000fd5b505050506040513d601f19601f820116820180604052508101906104149190610860565b10156104595760405162461bcd60e51b815260206004820152601460248201527324b739bab33334b1b4b2b73a103a37b5b2b7399760611b604482015260640161016a565b60005460405163a9059cbb60e01b8152336004820152602481018390526001600160a01b039091169063a9059cbb906044016020604051808303816000875af11580156104aa573d6000803e3d6000fd5b505050506040513d601f19601f820116820180604052508101906104ce9190610879565b5060408051338152602081018390527f6177f4110771217c72937d51f3a73915f2c714a6b98507e17eea7a186136a24a910160405180910390a150565b634e487b7160e01b600052604160045260246000fd5b600082601f83011261053257600080fd5b813567ffffffffffffffff8082111561054d5761054d61050b565b604051601f8301601f19908116603f011681019082821181831017156105755761057561050b565b8160405283815286602085880101111561058e57600080fd5b836020870160208301376000602085830101528094505050505092915050565b600080604083850312156105c157600080fd5b823567ffffffffffffffff808211156105d957600080fd5b6105e586838701610521565b935060208501359150808211156105fb57600080fd5b5061060885828601610521565b9150509250929050565b60006020828403121561062457600080fd5b81356001600160a01b038116811461063b57600080fd5b9392505050565b6000815180845260005b818110156106685760208185018101518683018201520161064c565b506000602082860101526020601f19601f83011685010191505092915050565b60608152600061069b6060830186610642565b82810360208401526106ad8186610642565b915050826040830152949350505050565b6000602082840312156106d057600080fd5b5035919050565b600181811c908216806106eb57607f821691505b60208210810361070b57634e487b7160e01b600052602260045260246000fd5b50919050565b601f82111561075b57600081815260208120601f850160051c810160208610156107385750805b601f850160051c820191505b8181101561075757828155600101610744565b5050505b505050565b815167ffffffffffffffff81111561077a5761077a61050b565b61078e8161078884546106d7565b84610711565b602080601f8311600181146107c357600084156107ab5750858301515b600019600386901b1c1916600185901b178555610757565b600085815260208120601f198616915b828110156107f2578886015182559484019460019091019084016107d3565b50858210156108105787850151600019600388901b60f8161c191681555b5050505050600190811b01905550565b6001600160a01b038416815260606020820181905260009061084490830185610642565b82810360408401526108568185610642565b9695505050505050565b60006020828403121561087257600080fd5b5051919050565b60006020828403121561088b57600080fd5b8151801515811461063b57600080fdfea2646970667358221220f3f7e57ebbc20fd859a6b4bae939122a67380c0a58d4cf27ff6b6074fc6baf2764736f6c63430008140033",
  "linkReferences": {},
  "deployedLinkReferences": {}
}